:02000000FD2BD6
:10000800FF00030E8301DC000A08DB008A01700888
:10001800AC007108AB007208AA007308A900740844
:10002800A8007508A7007808A6007908A5007A082E
:10003800A4007B08A3007C08A2007D08A100040896
:10004800AD00402300304406031D2C280030430631
:10005800031D482800304206031D3428003041069D
:10006800031D48280430FC003D30FD00FD0B3A28F4
:10007800FC0B3A2800000000B001B1014908E40077
:100088004A08E5006323A32300304406031D4E28D5
:1000980000304306031D752800304206031D56280C
:1000A80000304106031975280430FC003D30FD007E
:1000B800FD0B5C28FC0B5C28000000004908E400EC
:1000C8004A08E500E2237008C9007108CA00013037
:1000D800B0000030B1007008E4007108E500632347
:1000E800A32300304406031D7B2800304306031970
:1000F800972800304206031D832800304106031D5F
:1001080097280430FC003D30FD00FD0B8928FC0BCE
:10011800892800000000B001B1015708E400580820
:10012800E5006323A32300304406031D9D28003007
:1001380043060319B92800304206031DA5280030DC
:1001480041060319B9280430FC003D30FD00FD0BC1
:10015800AB28FC0BAB2800000000B001B10155082A
:10016800E4005608E5006323A3230B112C08F000D4
:100178002B08F1002A08F2002908F3002808F400E7
:100188002708F5002608F8002508F9002408FA00D1
:100198002308FB002208FC002108FD002D0884002C
:0E01A8005B088A005C0E8300FF0E7F0E0900CC
:0E01B600F201F101F001F801F3010030080040
:0801C400FA1FF21300300800DD
:1001CC007B15FB1FF0280130F300F201F101F00167
:0801DC00FA0DF20CFF300800DF
:0E01E400000000000000000000000000080005
:1001F200FB14FB1F0329FF30F300F200F100F000B3
:08020200FA0DF20CFF300800B8
:0E020A00831203135E088A005D08820008005C
:1002180083120313F801F9011030FC00710DF80D79
:10022800F90D7408F8027508031C750FF902031814
:1002380024297408F80775080318750FF9070310BF
:0A024800F00DF10DFC0B1229080067
:100252007B14FB1F3429F201FA1FFF30F200F10078
:0A026200F000FA0DF20CFF30080066
:10026C00A0017208031D4B297108F2007008F100FF
:10027C00F001A0157208031D4B297108F200F10161
:10028C00A01120167208031959292008F302031D26
:10029C00031C5D290310F21B6129F00DF10DF20D09
:1002AC00F30B51295D290130FC00DB20642902305D
:0E02BC00FC00E62064290430FC00E22008006B
:1002CA0083120313FB01FA01F9018030F800F10CE3
:1002DA00F00C031C79297408F90775080318750FBF
:1002EA00FA070318FB0A0310F01F81297408FA079A
:1002FA0075080318750FFB07FB0CFA0CF90CF80CC0
:10030A00031C6C297B08F3007A08F2007908F100D3
:06031A007808F000080065
:10032000831203137008F8007108F000F101F20164
:10033000F301FB01FC019630F300FA017008F100B3
:0C0340007808F000F801F20136210800F6
:10034C00831203137008F8007108F000F101F20138
:10035C00F301FB01FC019630F300FA01F01FBC29FC
:10036C00F809F009F80A0319F00AFA177008F100F5
:0C037C007808F000F801F20136210800BA
:1003880083120313FB017308031D770803191B2A43
:1003980072087606FA007708F3077E30031CD8291E
:1003A800F30203181E2ADB29F302031C212A720810
:1003B800F8007108FC007008FD00F817F617031024
:1003C800F201F101F0011830A0007D1CF529740834
:1003D800F00775080318750FF10776080318760FEC
:1003E800F207F20CF10CF00CF80CFC0CFD0C0310ED
:1003F800A00BE929F21B052AF80DF00DF10DF20DFD
:10040800F3037B1B701C172AF81F172AF00A03191D
:10041800F10A0319F20A031D172AF20CF10CF00C69
:10042800F30A03191E2AFA1FF2130030232A013097
:10043800DB20232A0230F920232A0430E62000009A
:020448000800AA
:10044A0083120313FB0173080319622A7208FA0064
:10045A00F2178E30F302F31F652AF309F30A083004
:10046A007302031C482AF300F10D7208F100F2012D
:10047A0008307302031C482AF300F10DF1017308D6
:10048A00031D0310502A73080319502A0310F20C93
:10049A00F10CF30B4B2A7B1B711C5A2A031C5A2A98
:1004AA00F10A0319F20AF21B712AFA1F742AF209D5
:1004BA00F109F10A0319F20A742AF201F101742A04
:1004CA007B14FB1F772AF201FA1F772AFF30F2000A
:1004DA00F100FA0DF20C772A0130FC00792A00307B
:1004EA00FC00792AFF30FC00FC0803197D2A292127
:0A04FA007108F0007208F10008001C
:1005040083120313FB01FC01F80173080319FA2A8F
:100514007208FA00F2179E30F302F31FEA2AF30975
:10052400F30A08307302031CBF2AF300F80D7008A5
:10053400F8007108F0007208F100F201083073024B
:10054400031CBF2AF300F80D7008F8007108F000CE
:10055400F10108307302031CBF2AF300F80D700880
:10056400F800F00108307302031CBF2AF300F80DF1
:10057400F8017308031D0310C92A73080319C92A53
:100584000310F20CF10CF00CF80CF30BC22A7B1BD9
:10059400781CD72A031CD72AF80A0319F00A03196E
:1005A400F10A0319F20AF21BF72AFA1FFA2AF209CE
:1005B400F109F009F809F80A0319F00A0319F10A14
:1005C4000319F20AFA2AF201F101F001F801FA2AF8
:1005D4007B14FB1FFD2AF201FA1FFD2AF200F10031
:1005E400F000F800FA0DF20CFD2A0130FC00FF2A9D
:1005F4000030FC00FF2AFF30FC00FC080319032B29
:1006040029217208F3007108F2007008F1007808DB
:04061400F0000800EA
:1006180005218A110A128000840ADD0A0319DE0AFC
:08062800F003031D0C2B080078
:10063000831203139F01C0309F043C09F00070082F
:1006400083169F051F179F1783126308F000F00D94
:100650007010F00D7010F00D701070089F041F14D2
:10066000F2201F151F1D362B0000322B1F101E08F5
:10067000F100F00183161E08F0040030F1040800B8
:100680008312031354084A02031D482B53084902DE
:10069000031C532B4A085A02031D502B49085902C8
:1006A000031C532B5B2B0716F930FD00FD0B562B5B
:1006B00000000000622B0712F930FD00FD0B5E2BDD
:0606C0000000000008002C
:1006C600E83083120313F4000330F5006408F000E9
:1006D6006508F1000C210A30F400F5010C217808B8
:1006E600F0007908F1007008D1007108D20064307A
:1006F600F400F5016408F0006508F1000C210A30E9
:10070600F400F5010C217808F0007908F100700872
:10071600CF007108D0000A30F400F5016408F0003B
:100726006508F1000C210A30F400F5010C21780867
:10073600F0007908F1007008CD007108CE000800BD
:10074600831203135108323E840000088800071004
:10075600F930FD00FD0BAD2B0000000007144F081B
:10076600323E8400000888008710F930FD00FD0B3A
:10077600BA2B0000000087144D08323E84000008A2
:1007860088000711F930FD00FD0BC72B00000000A3
:10079600071500303106031DD22B00303006031931
:1007A600D72B2F088800D92B2E0888008711F930FF
:0E07B600FD00FD0BDC2B000000008715080085
:1007C400093083120313F0000030F1006408F400D0
:1007D4006508F50065210530F4000030F5000C21B2
:1007E4004030F00701300318013EF1077008E400BF
:0607F4007108E500080099
:1007FA00C624831203138101833083168100A0303B
:10080A008B00880183128801831687018312850170
:10081A00013083168500831207148714071587157C
:10082A000712E301182370088312CB007108CC0069
:10083A000130E300182370088312C3007108C40052
:10084A000230E300182370088312C1007108C20045
:10085A004B08F0004C08F100A621EC30F400673098
:10086A00F5001C30F6008130F700C421822270089E
:10087A00BD007108BE007208BF007308C00070088E
:10088A00C9007108CA000330E30018239021EC3034
:10089A00F4006730F5001C30F6008130F700C421FF
:1008AA0025227008C7007108C8000430E300182325
:1008BA009021EC30F4006730F5001C30F6008130EE
:1008CA00F700C42125227008E1007108E2006108DE
:1008DA00C5006208C6004708F0004808F1000A305F
:1008EA00F4000030F50065217008DF007108E000AF
:1008FA005F08D7006008D8006108F0006208F100BC
:10090A000A30F4000030F50065217008D50071083E
:10091A00D60071086002031D942C70085F02031848
:10092A009F2C5708D3005808D4005508D9005608F8
:10093A00DA00AF2C58085602031DA52C5708550299
:10094A000318AF2C5508D3005608D4005708D9000D
:08095A005808DA00162CB02C3D
:10098C002E3084000F3083120313F000B630DD00DC
:08099C000430DE000C2308000A
:02096C0039341C
:02096E007134E2
:04097000003400341B
:100974003F3406345B344F3466346D347D3407348D
:040984007F346F3419
:020988000F342A
:02400E004A2F37
:00000001FF
